:100000000C9413010C9430010C9430010C943001C9
:100010000C9430010C9430010C9430010C9430019C
:100020000C9430010C9430010C94551A0C94291B3B
:100030000C9484150C9430010C9430010C94300114
:100040000C9430010C9430010C9430010C9430016C
:100050000C9430010C940B160C9430010C9430016C
:100060000C9430010C9430010C9430010C9430014C
:100070000C9430010C9430010C9430010C9430013C
:100080000C9430010C9430010C9430010C9430012C
:100090000C9430010C9430010C9430010C9430011C
:1000A0000C9430010C9430010C94300100000000DD
:1000B000000000004C00060100004600000029007E
:1000C000000051001901040128002B00E1002A0062
:1000D0000000E0002803440069007200650063002E
:1000E0007400500069006E00730020005000720020
:1000F0006F004D006900630072006F00000016037E
:100100005A00610063006800200057006800690021
:100110007400650000000403090409023B000201A9
:1001200000A0FA09040000010301010009211101E6
:1001300000012244000705810308000109040100B1
:100140000103000000092111010001227B000705C5
:1001500082032000011201000200000008EDFE20D1
:100160002301000102000105010902A10185020924
:1001700001A1000509190129081500250195087537
:100180000181020501093009311581257F9502752C
:1001900008810609381581257F95017508810605B6
:1001A0000C0A38021581257F950175088106C0C0AB
:1001B00005010980A101850319012AB7001501264F
:1001C000B700950175108100C0050C0901A10185DA
:1001D0000419012AA002150126A0029501751081BB
:1001E00000C005010906A101050719E029E715006E
:1001F00025019508750181029501750881010507A2
:10020000190029FF150026FF0095067508810005D5
:10021000081901290515002501950575019102951B
:100220000175039101C011241FBECFEFDAE0DEBFDC
:10023000CDBF11E0A0E0B1E0ECEBFBE302C0059024
:100240000D92AC39B107D9F722E0ACE9B1E001C0B9
:100250001D92AC36B207E1F70E94C50F0C949D1DAC
:100260000C940000811111C06A3078F4423068F4B7
:10027000E62FF0E0EE0FFF1FE40FF11DEE0FFF1F62
:10028000E455FF4F85919491089581E090E00895A1
:100290000E943201089581E008950E944B01089563
:1002A00081E008950E944B0108950E945201089533
:1002B00008950E9458010895A6E0B0E0E2E6F1E05A
:1002C0000C94F91C49835A839E833091A301898140
:1002D0009A8131111AC03E81332399F0222389F08B
:1002E0000E94E906182F682F89819A810E94C6060C
:1002F00069817A81812F0E94BE0D2696E3E00C94DD
:10030000151D0E94D706182FF3CF0E94E9066981B8
:100310007A81F1CFFC01262F408151816281738166
:10032000848195810E945C010895CF93DF93EC0155
:1003300061E00E948A01BE010E944D01DF91CF91D0
:100340000895CF93DF93EC0160E00E948A01BE0123
:100350000E945901DF91CF91089581E008950E9494
:10036000AD010895CF93C82F0E949B058C2F0E944A
:10037000AF012FEF84E39CE0215080409040E1F7F3
:1003800000C00000CF91089581E00E94B2010E9458
:100390002F16089580E00E94B2010E944016089531
:1003A0000F931F93CF93DF938C0161E00E948A012A
:1003B000EC01B8010E945501811106C080E0DF9177
:1003C000CF911F910F910895B801CE010E94EE13B5
:1003D0008823A1F3B801CE010E942A10882371F36B
:1003E000B801CE010E940010882341F3F8018581F5
:1003F000882361F0C330FCE7DF07E9F058F4C1154A
:10040000ECE7DE07A9F0C130DC47B9F0C8010E9473
:100410005001D5CFCB358CE7D807A9F0CC35ECE728
:10042000DE0771F0CA35DC4789F70E94000BEECF7A
:100430000E94C401C3CF0E94080B0E94CA01BECF14
:100440000E94F60AE3CF0E94040BE0CF0E946115E0
:100450000E94460208950E944A020E94661508956D
:1004600081E008950895CF93DF93D82F0E94300242
:10047000C82F882319F08D2F0E9432028C2FDF9114
:10048000CF91089508950E943302089580E00E945C
:10049000430208950E9437140E9443020895CF93A7
:1004A0000E943714C82F80919E018C1779F0C09359
:1004B0009E010E94F01560939F017093A0018093AC
:1004C000A1019093A2018C2F0E944302CF91089525
:1004D000ADE0B0E0EEE6F2E00C94FA1C48875987F4
:1004E0006A877B878C879D8791110E94360A1F82BD
:1004F00086E0FE013896DE01119601900D928A95F4
:10050000E1F78D8181110DC029813A814B815C8198
:100510006D817E818F810E9480092D96E2E00C948E
:10052000161DCE0101960E9495018111EDCFF5CFE8
:10053000FC012481213021F4808191810E941B07DC
:100540000895662329F00E948B110E945E1208957F
:100550000E94E511FACFCF93C82F882399F08CEF32
:100560008C0F813A88F48C2F0E94BC14882329F0C8
:100570008C2F0E94FF140E94A50A8C2F0E94F71452
:100580000E94A50ACF91089580E28C0F883048F42C
:10059000C77081E001C0880FCA95EAF70E94190A66
:1005A000EFCFEBE5EC0FE33040F4F0E0E55BFE4F1E
:1005B000808190E00E945D14E5CFE8E5EC0FEB311F
:1005C00050F4F0E0EE0FFF1FEB5EFE4F8081918153
:1005D0000E948214D7CF83E38C0F833198F661E0B9
:1005E0008C2F0E94A102CECF882381F19CEF980F1F
:1005F000913A28F40E94FF140E94A50A089590E2FF
:10060000980F983050F4877091E001C0990F8A9547
:10061000EAF7892F0E941F0AEFCF9BE5980F9330CE
:1006200028F490E080E00E945D14089598E5980F0A
:100630009B3128F490E080E00E948214089593E3B7
:10064000980F933118F460E00E94A10208951F935F
:10065000CF93DF93182FEB010E94AB02209739F460
:10066000812F0E94F402DF91CF911F9108958FE9AD
:100670009FE00197F1F700C000002197EFCF70E0F5
:1006800060E0893311F460E570E00E94270308956B
:10069000882321F00E94190A0E94A50A0895882340
:1006A00021F00E941F0A0E94A50A0895B0E0A0E070
:1006B000ECE5F3E00C94F31C6C01D62FC72FFC0182
:1006C0001581068102950F700E940F0AE82E88237B
:1006D000F9F0E12E1123E1F08C2F807F803461F05E
:1006E00080E28D0F883008F18C2F807E803221F4DB
:1006F000D230D8F00023C9F08091460282FF15C0A5
:1007000082E00E94CA0A0E940F0A91E0E82EE926C0
:10071000BC2EB2949FE0B922FBE0FB15B8F1EB2DA3
:10072000F0E0E156F24E0C94E41CE12CF1CF0C2FDA
:100730000F70C07F11F00295007F112399F0002304
:1007400059F080E28D0F883010F0D11107C0802F52
:100750000E94190A0E94A50A8D2F5AC0802F0E945C
:10076000290AF8CF8D2F0E94F402002379F080E24D
:100770008D0F883010F0D11104C0802F0E941F0A05
:1007800003C0802F0E942F0A0E94A50AEB2DE8507B
:10079000FF0B349720F40E9437140E944302EE208E
:1007A00089F00E940B0A80FD0DC0F60115820E949F
:1007B000050A0E942406C6010E9462050E94050ADD
:1007C0000E943406CDB7DEB7E9E00C940F1D2C2F44
:1007D0002F70F22EC07FC03219F0F29480EFF82211
:1007E000DD2341F0D130D1F1112309F444C00023BD
:1007F000F1F0B2CF8091460282FD15C0112359F06D
:10080000FF2029F08F2D0E94190A0E94A50A80E07E
:100810000E94AB02BBCF80E00E94F402FF2009F4EB
:10082000B5CF8F2DABCF112369F0011104C08F2DEF
:100830000E944803ABCF013009F0A8CF8F2D0E9452
:100840004D0AA4CF0111A2CF8F2D0E944F038F2DEF
:100850000E94590A8F2D0E943D0A98CF112321F042
:10086000063008F093CFE3CF053008F08FCF8F2DFF
:100870000E944F038BCF0023D1F3D93349F43FEFCC
:1008800087EE93E0315080409040E1F700C00000D7
:100890008D2F0E94F4027ACF8C2F869586958370D7
:1008A00069F0813009F072CF8D2F9C2F9370111158
:1008B00002C080E090E00E94821468CF8D2F9C2FB0
:1008C0009370111102C080E090E00E945D145ECF31
:1008D000612F8D2F0E94A10259CF8C2F8370A1F51B
:1008E000111154CF4D2F429546954770440F440F38
:1008F0002D2F2F7030E0042E02C0220F331F0A94D8
:10090000E2F790E080E0D4FF09C08FE090E002C001
:10091000880F991F4A95E2F780959095C695C695E0
:10092000C370822B932BC23049F058F4C13019F0B8
:100930000E94F4052BCF0E94EB0528CF0E94FD05F5
:1009400025CF0E94E80522CF8695112311F08C2F28
:100950008170882309F41ACF4D2F42954695477030
:10096000440F440F2D2F2F7030E0042E02C0220FB1
:10097000331F0A94E2F790E080E0D4FF09C08FE0D3
:1009800090E002C0880F991F4A95E2F780959095F4
:10099000C695C695C370822B932BC23049F058F48C
:1009A000C13019F00E945F06F1CE0E945606EECECD
:1009B0000E946806EBCE0E940C06E8CECF70112391
:1009C00029F08C2F0E9424068D2F32CF8D2F0E946C
:1009D0004F038C2F0E943406D9CED23F41F160F4F0
:1009E000D03FB9F0D13F81F0112309F443C0011188
:1009F000B3CE8C2F8F711FC0D33F01F1D43FA1F72D
:100A00008091460282FD24C08C2F8F71112311F337
:100A100012C0112341F0053008F0B8CE8C2F8F7131
:100A20000E944606B3CE063008F0B0CEF7CF8C2F2A
:100A30008F711111CFCF0E942406A8CE112329F067
:100A40008C2F8F710E941806A1CE0E9413069ECE95
:100A5000112331F063E08C2F8F710E94AC0A96CE87
:100A600081E00E94CA0A023008F490CE82E00E941F
:100A7000CA0A8CCE002359F0D93309F009CFEFEF21
:100A8000F7EE23E0E150F0402040E1F7FFCE8C2F5D
:100A90008F71A0CF0F931F93CF93DF93EC016881E9
:100AA00079818D810E9426078C010E9471060E9427
:100AB000E705B801CE010E945603DF91CF911F9147
:100AC0000F910895CF93DF93EC018C81882399F0E7
:100AD000CE010E94D001811111C00E940F0A88230B
:100AE00051F08D81882339F08091460282FF03C046
:100AF00082E00E94CA0ADF91CF910895CE010E9440
:100B00004A05CE010E94A101F6CF90E080E00E944C
:100B10005D1490E080E00E9482140E94360A0E94D8
:100B2000A50A0E947A120E945E1208950E9407157B
:100B30000E94850508950E94260A0E949605089540
:100B400092959F70963091F058F4925F9F7092301A
:100B500058F4803F19F030F4883E30F481E0089575
:100B60009A5FF4CF843FD1F380E00895883EB0F3DC
:100B7000813FD1F7F3CFFC012481222339F080811A
:100B800091810E941B070E94A005089580E00895AE
:100B9000A6E0B0E0EEECF5E00C94FA1C2696E2E05C
:100BA0000C94161DA7E0B0E0E8EDF5E00C94FA1CFB
:100BB0002796E2E00C94161D08950E94DC05089526
:100BC0000E94DD059093B3018093B20108950895CA
:100BD0000E94E00508952091B2013091B301822B6B
:100BE000932B0E94E00508952091B2013091B3014A
:100BF000822393230E94E00508952091B201309151
:100C0000B301822793270E94E00508950E94DC0526
:100C100008950E94060608950E9409069093B10166
:100C20008093B001089590E080E00E940C06089542
:100C300021E030E0A90102C0440F551F8A95E2F778
:100C4000CA010E940C06089521E030E002C0220F84
:100C5000331F8A95E2F78091B0019091B101822B08
:100C6000932B0E940C06089521E030E002C0220F71
:100C7000331F8A95E2F7209530958091B0019091CD
:100C8000B101822393230E940C06089521E030E0F5
:100C900002C0220F331F8A95E2F78091B001909134
:100CA000B101822793270E940C0608952091B0017C
:100CB0003091B101822B932B0E940C060895209154
:100CC000B0013091B101822393230E940C06089554
:100CD0002091B0013091B101822793270E940C0628
:100CE00008950895262F277091E001C0990F2A9545
:100CF000EAF723E0769567952A95E1F7660F771F67
:100D0000660F771FFA01E60FF71F50E040E0682FEB
:100D100070E08191DF0111979B01042E02C036958E
:100D200027950A94E2F7217021952827292328275F
:100D30002C934F5F5F4F4430510559F70895A82F0A
:100D4000A77023E0969587952A95E1F7880F991F5C
:100D5000880F991FFB01E80FF91F50E040E080E089
:100D6000219130E00A2E02C0369527950A94E2F7C9
:100D700021703327042E01C0220F0A94EAF7822B38
:100D80004F5F5F4F4430510559F70895262F9A3031
:100D900068F4823058F4692F70E0660F771F680F8F
:100DA000711D44EA51E0822F0E94720608959A3024
:100DB00070F4823060F4292F30E0220F331F64EA90
:100DC00071E0820F932F911D0E949F06089580E08D
:100DD0000895B0E0A0E0EFEEF6E00C94F31C7C0187
:100DE0000091B0011091B1018091B2019091B301D5
:100DF000082B192BCFE0D0E0CC24C394D12CBC2EEF
:100E0000C6010C2E02C0880F991F0A94E2F78023B6
:100E10009123892B49F4219790F7B12C8B2DCDB7D5
:100E2000DEB7E9E00C940F1DB7018C2F0E94CA0DAC
:100E3000019789F3F3CFCF93DF93EC010E94E9068A
:100E4000BE010E94CA0DDF91CF9108951F93CF93E9
:100E5000DF93EB019091A301992339F0CB010E941C
:100E60001B07DF91CF911F910895882369F0CB0173
:100E70000E94E906182F682FCE010E94C606BE0107
:100E8000812F0E94CA0DEDCFCB010E94D706182FEB
:100E9000F6CF1F93CF93DF93C091B40117E08091F9
:100EA000B5018C1304C0DF91CF911F910895D0E05C
:100EB0001C9FF0011D9FF00D1124EA54FE4F20816C
:100EC0003181428153816481758186810E94D2057E
:100ED0002196C770E4CF2091EE013091EF0140914F
:100EE000F0015091F1016091F2017091F301809154
:100EF000F4010E94D2050895CF93DF938091F4010D
:100F0000807F09F04DC08091F301882309F448C027
:100F1000E091B4015091B501C091EF01D091EE0183
:100F20006091F0017091F10147E05E17C9F18E2FD9
:100F300090E0E49FF0011124EA54FE4F2481222323
:100F400091F1489FF001499FF00D1124DF01AA544F
:100F5000BE4F11962C9111972C1325C02C912D1357
:100F600022C015962C91159721111DC012962D9116
:100F70003C91261B370B283C3105A8F48091F401E5
:100F80008F7080618093F401E454FE4F80818F70F4
:100F9000806180838EEE91E00E9462050E94490785
:100FA000DF91CF910895FC013196E770BECF482FB5
:100FB0002091B4019091B50157E0291302C080E05F
:100FC000089530E0529FF001539FF00D1124EA5430
:100FD000FE4F8181681306C08081481303C085815C
:100FE0008111EECF2F5F3F4F2770E7CFA4E1B0E034
:100FF000ECEFF7E00C94F01C8C0186E0F801DE01C8
:101000001F9601900D928A95E1F7F8018481E580A1
:101010009EEEA92E91E0B92E9091F20191111FC080
:101020008823D1F0EE20A9F0C8010E94BB05F82E5C
:10103000882379F087E0F801D50101900D928A9517
:10104000E1F7C5010E9498020E947C070E946B078D
:101050005FC0C8010E946205FF24F39459C0C0809C
:10106000D18082809380F090F3012091F001309143
:10107000F101A401421B530BFF2009F4F9C0483CC5
:10108000510508F0A7C0882309F442C09091EF01F0
:101090008091F401282F207F09F05CC09D1116C0BB
:1010A0009091EE01C91212C0E1104EC08F708061A4
:1010B0008093F4010E946B078EEE91E00E9462051E
:1010C0008091F401F8018683F12C22C0E1103CC02C
:1010D0006D2D8C2D0E94D7076D2D8C2D0E94D7076A
:1010E000E82E8111F1CFCF86D88A8F8598890E940A
:1010F0001B07292F22952F70243078F49F702230FF
:10110000A8F09923B9F0F8019681907F99F4FE2C0C
:101110008F2D6496ECE00C940C1D2A5F2F7022300A
:1011200068F0C8010E946205EF2CF1CF992311F0FD
:10113000882369F3805E883050F3F3CF803F38F323
:10114000815F833070F7E3CF8091F40181608093F9
:10115000F401BACF9D1113C09091EE01C9120FC0D6
:10116000E1100DC08683C8010E94620587E0F80186
:10117000AEEEB1E001900D928A95E1F767CFC8011C
:101180000E94BB05882309F464CFEE2009F461CFE7
:101190008091F401803288F02091EE013091EF01CE
:1011A000398728879B868A869091F2019C871D86C5
:1011B0008E87CE0108960E94620587E0F801AEEEA8
:1011C000B1E001900D928A95E1F70E947C070E94A0
:1011D0006B0742CF9091F401292F207FA1F4682D55
:1011E0009A8A898AA6017A899E2D0E94C8058EEE68
:1011F00091E00E94620587E0F50111928A95E9F776
:101200000E946B0761CF882309F482CF8091EF01A0
:101210008D1110C08091EE01C8120CC0E1100AC0FF
:101220009683C8010E94620587E0F50111928A95B4
:10123000E9F76ECFC8010E94BB05882309F409CFE6
:10124000EE2009F406CF8091F401803208F4B5CF86
:101250002091EE013091EF013A8329839C828B82A9
:101260009091F2019D831E828F83CE010196A3CFC0
:10127000483C5105B8F5882309F4EECEFE2CEE204B
:1012800009F4E7CE8091EF018D111EC08091EE012F
:10129000C8121AC08091F40180FD0DC0982F907F74
:1012A00051F08683903F09F45ECF982F907F905F36
:1012B0008F70892B57CF87E0F801AEEEB1E0019037
:1012C0000D928A95E1F724CFC8010E94BB058111D8
:1012D00074CF8091F40181608093F401C8010E9471
:1012E000620516CF682D9A8A898AA6017A899E2D71
:1012F0000E94C80587E0F50111928A95E9F7A6CE0C
:10130000AEE0B0E0E6E8F9E00C94F91C28873987F4
:101310004A875B876C877D878E87CE0108960E94FF
:10132000F6078823B1F06C85662341F0288539855E
:101330004A855B857D858E850E94D20517E0809168
:10134000B4019091B50189133DC02E96E3E00C9451
:10135000151D87E0FE013896DE01119601900D9271
:101360008A95E1F78C85882349F32091B50130E017
:10137000C9010196877099274091B4014817190651
:1013800099F097E0929FD001939FB00D1124AA5439
:10139000BE4FFE01319601900D929A95E1F7809330
:1013A000B5010E944907CACF0E949B051092B50162
:1013B0001092B40187E0EEEEF1E0DF011D928A9514
:1013C000E9F7BCCF819FC00111248A549E4F0E942F
:1013D000F607882309F4B9CFE091B4011E9FF0010C
:1013E0001124EA54FE4F208131814281538164816E
:1013F000758186810E94D2058091B40190E00196AA
:10140000877099278093B4019ACF8091FD018695CA
:101410008695869508958091FD0187700895909135
:10142000FD01977081E009F480E008958091090240
:10143000089590910902892B80930902089580955F
:10144000909109029823909309020895109209023D
:10145000089590910802892B809308020895809541
:101460009091080298239093080208951092080220
:10147000089508950E94390A08959091FE01292F38
:10148000282331F0809589238093FE010E943A0A37
:10149000089508950E94490A08959091FF01292F07
:1014A0002823281729F0982B9093FF010E944A0ABD
:1014B00008959091FF01292F282331F080958923E9
:1014C0008093FF010E944A0A08958091FF018823BA
:1014D00029F01092FF0180E00E944A0A08950F93BC
:1014E0001F93CF93DF930091000110910101C091F0
:1014F000090280910802C82B8091FF01882331F0F6
:10150000C82B0E94A71481110E94650AF801C083AC
:10151000C0910001D091010148E050E065EF71E019
:10152000CE010E94351D892B59F088E0FE01A5EF00
:10153000B1E001900D928A95E1F7CE010E9444142A
:10154000DF91CF911F910F9108950E946F0A089526
:1015500008950E94A80A08959091460292FF11C032
:1015600098E0899F90011124622B6093FD010E94F5
:1015700024068091FD018695869586950E94A90A8C
:1015800008950E94240608951092FD0180E00E94B3
:10159000A90A08959091FD01809589238093FD010A
:1015A000282F277069F4891759F09091460292FF0D
:1015B00007C08695869586950E9434060E94C40AC7
:1015C00008959091460292FB222720F9281769F08E
:1015D00080FB92F9909346028091450290914602D9
:1015E0000E94290B82E00E94CA0A08958091460257
:1015F00082FB882780F991E089270E94E10A0895FB
:1016000081E00E94E10A089580E00E94E10A0895C5
:101610006FEF7FEF90E080E00E94871D089590E0DB
:1016200080E00E94531D21E0853E9E4F09F020E09E
:10163000822F089582E090E00E944B1D089583E080
:1016400090E00E944B1D089584E090E00E94531D9D
:101650000895BC0184E090E00E94871D0895AB01CD
:10166000BC018FE090E00E947B1D0895AB01BC019E
:1016700083E190E00E947B1D089560E070E0CB0163
:101680000E94360B089560E070E0CB010E942F0BA2
:101690000E943D0B0895A8E0B0E0E1E5FBE00C946A
:1016A000FA1C65EE7EEF90E080E00E94871D60E00E
:1016B00082E090E00E94691D81E090E09093B30188
:1016C0008093B20161E083E090E00E94691D60E0D8
:1016D00074E184E090E00E94871D60E086E090E085
:1016E0000E94691D60E087E090E00E94691D40E073
:1016F00050E0BA0188E090E00E947B1D60E083E248
:1017000090E00E94691D60E08CE090E00E94691DFD
:1017100060E08DE090E00E94691D19821A821B82B0
:101720001C821D821E821F82188648E050E067E1FD
:1017300070E0CE0101960E94591D40E050E0BA01D0
:101740008FE190E00E947B1D0E94430B2896E2E00F
:101750000C94161D0E944B0B0895682F8EE090E0AC
:101760000E94691D0895A6E0B0E0E9EBFBE00C944F
:10177000F81C0E94E4158C0180910A0290910B02E2
:101780008017910781F019821A820E94E415682F50
:1017900049815A81792F80E090E00E94680210937D
:1017A0000B0200930A022696E4E00C94141D0E949A
:1017B000F01560931A0270931B0280931C029093A1
:1017C0001D02609316027093170280931802909383
:1017D00019020895089508950E94EA0B0895089546
:1017E0000E94EF0B089580EC9EE00E94DA0F0E94A9
:1017F000EB0B0E94EC0B089581E008950E94FC0B16
:1018000008950E94FC0B0895089508950E94040C09
:101810000E94050C08950E940F0B811102C00E94C6
:10182000AA0B0E941A0B80931E020E94240B909315
:101830004602809345020E94FD0F0E941F0B90E01C
:101840000E94E8058091B0019091B1010E940906C3
:1018500008950E94DB150E94370F0E940B0C0E9416
:1018600042020E94F00B0895A6E0B0E0EAE3FCE03B
:101870000C94F11C0E94FE0B81110AC00E94B30B54
:101880000E949C120E944F022696EBE00C940D1DC4
:101890000E944D0F8CE0C82E82E0D82E760110E019
:1018A000F70101917F01812F0E94CA0E1F5F1A303C
:1018B00009F440C00817A1F380911E0281FD0E9427
:1018C000D00E0E94010CA82E10E099249394812F31
:1018D0000E94CA0E082FF60181916F01081721F1AD
:1018E000B12CFF24F394E02EE8268E2D8F21A9F051
:1018F000AA2099F0B9821A830E94E4159C838B83F5
:101900009D8291E0802F8F2109F490E049815A81D6
:101910006B817C818D810E946802FF0CF1E0BF1217
:101920000CC0F601319700831F5F1A3081F60E94C8
:10193000D70BA6CF0813C0CFA1CFBB24B394D5CF6C
:101940001F93CF93DF930E94CF0DEC01C11580E56B
:10195000D807F0F5C11580E4D80708F09CC0C03E58
:10196000D10520F5CD3CD10508F082C0C83AD1059B
:1019700078F4C53AD10508F073C0C130D10519F12A
:10198000209709F1C430D105F0F4D0E0C0E01BC0CD
:10199000C33CD105D0F7C85AD0E0CC0FDD1FC25BE5
:1019A000DE4F0990D881C02DD4640DC0C11580E2EE
:1019B000D80708F0D1C0C11581E0D80708F05AC097
:1019C000C83ED10510F7CE01DF91CF911F91089548
:1019D000C03682E5D80718F5C03482E5D80708F08C
:1019E0006BC0C03282E5D80708F05FC0C11582E540
:1019F000D80708F497C02C2F2695269580E2289FBB
:101A0000900111248C2F8370C1E0D0E002C0CC0F74
:101A1000DD1F8A95E2F7C22BD32BDD68D4CFC03A05
:101A200082E5D80760F4C03882E5D80708F459C0C9
:101A3000CF71D0E0DC2FCC27C46FD06AC4CFC03CBC
:101A400082E5D80708F462C0C03E82E5D80708F0F6
:101A50009CCFDC2FCC27CC27DF71C06FD06AB3CFEF
:101A6000C55AD0E0CC57DE4FC881D0E0D064ABCFB0
:101A7000D065A9CF8D2F0E94710E182FCE01992706
:101A80000E94CF0DC12FD0E0DC2FCC27CC27DF71F7
:101A9000C82BD92B98CFCE0199270E94CF0DCC27E8
:101AA000DF70C82BD92BD06A8ECFCF71D0E0DC2F5E
:101AB000CC27C16FD06A87CF2C2F2695269527700B
:101AC00080E2289F900111248C2F8370C1E0D0E028
:101AD00002C0CC0FDD1F8A95E2F7C22BD32BDC6846
:101AE00072CF2C2F26952695277080E2289F900193
:101AF00011248C2F8370C1E0D0E002C0CC0FDD1F19
:101B00008A95E2F7C22BD32BDA685DCF8C2F8F71C9
:101B10000E94710EC82FD0E0DC2FCC27CC27DF71BC
:101B2000D06251CF8C2F8F710E94710E55E0D695E7
:101B3000C7955A95E1F7CF70D0E0DC2FCC27282F3E
:101B400030E084FF05C044E0220F331F4A95E1F7DF
:101B5000C22BD32BD06937CF8D2F8F710E94710E7E
:101B6000182FCE0199270E94CF0DC12FD0E0DC2F76
:101B7000CC27CC27DF71C82BD92BD2CF462F7A3078
:101B800030F4623020F4672F0E944801089590E0FD
:101B900080E008950E94BE0D0E94A00C0895823836
:101BA0009105B9F1B0F48133910509F47DC048F491
:101BB0008932910509F46DC08A32910509F47BC020
:101BC00008958533910509F45FC08933910509F1C2
:101BD0000895833E9105D9F138F4803E910529F1AD
:101BE000823E910579F10895863E9105D9F1873EAF
:101BF000910509F43EC0843E910541F520914602CD
:101C000021FF24C08091450284FD19C087EE90E039
:101C1000089520914502237009F05AC02091460290
:101C200023FF14C089E290E008952091450220FD31
:101C300038C03091460230FF09C024FF43C090E015
:101C400080E008952091450222FDF7CF089520916C
:101C5000450222FD3AC03091460230FD39C024FFD2
:101C6000F5CFEDCF2091450223FFF0CF24FDE7CF44
:101C7000CDCF2091450223FD2EC03091460231FF89
:101C8000EECF84EE90E008952091450225FFDECF4F
:101C9000C9CF2091450225FD21C02091460223FF96
:101CA000D5CF89E390E0D2CF2091450226FFCECF59
:101CB0008AE290E008952091450226FFC7CF81E394
:101CC00090E0089583EE90E0089582EE90E008950C
:101CD00080EE90E0089586EE90E0089585E390E030
:101CE00008959091450292FF10C041E0282F247181
:101CF000243009F040E031E0282F2871283009F025
:101D000030E0431711F02CE0822793FF10C041E030
:101D1000282F2471243109F040E031E0282F287168
:101D2000283109F030E0431711F02CE08227309180
:101D3000460230FF10C051E0282F2171213009F0F8
:101D400050E041E0282F2871283009F040E0541776
:101D500011F029E0822731FF10C041E0282F2171C6
:101D6000213109F040E031E0282F2871283109F0B5
:101D700030E0431711F029E0822794FD877E089513
:101D800080E0089508950E94C20E089508950E946B
:101D9000C60E0895E82FF0E0EF5AFD4F80810895B8
:101DA00008951F93CF93DF9327E831E0C1E0D0E09F
:101DB000D90150E040E002C041E050E08D918F3FFA
:101DC00091F0E82FE295EF70F0E011A18F70BE0165
:101DD00001C0660F8A95EAF7962F9095912391A3FB
:101DE00082A1862B82A34130510531F72E5F3F4FF0
:101DF00081E02B393807E1F6DF91CF911F910895EB
:101E0000FC0170E0AB01440F551FDA01A957BE4F2A
:101E10008C9120E08F3F79F0A82FA295AF70B0E0B1
:101E200090962C9130E08F7002C0359527958A9559
:101E3000E2F72095217049575E4FDA0111969C9187
:101E40009F3F79F0A92FA295AF70B0E090964C918A
:101E500050E09F7002C0559547959A95E2F792E041
:101E600040FD90E0E60FF71F292B208308950E9484
:101E7000D10E8AE0E1E5F2E0DF01982F1D929A95FC
:101E8000E9F7E7E4F2E0DF011D928A95E9F78AE0DD
:101E90000E94880F0E94C30E0895AAE0B0E0E3E517
:101EA000FFE00C94F71C8E010F5F1F4F8AE0F801D2
:101EB00011928A95E9F7F12C6F2DC8010E94000F4D
:101EC000F394FAE0FF12F8CF4AE050E0B80187E45B
:101ED00092E00E94351D21E0009709F420E0892B53
:101EE00041F08AE0F801A7E4B2E001900D928A95F2
:101EF000E1F74AE061E572E087E492E00E94890F31
:101F0000182F0E94C70E812F2A96E5E00C94131D0E
:101F10000895B0E0A0E0EFE8FFE00C94F41C6C0141
:101F20007B01042FC22F222379F081E080932102CC
:101F30000E94E4159093200280931F0280E0CDB7A9
:101F4000DEB7E8E00C94101DD0912102DD23B1F33F
:101F500080911F02909120020E94FC15059770F35A
:101F600010E0A801B601C7010E94351D892B31F090
:101F7000A801B601C7010E94421DCD2F1092210277
:101F80008C2FDDCF0E94340C08950E947D150E9495
:101F90008C170E94F30B0E94A6170E94290C0E9426
:101FA000B3170E94B8170E94C20F0E94D2170E9456
:101FB000060CF7CF90939D0180939C0108950E9499
:101FC000080B089580E00E94CA0E817008950E9457
:101FD0004D0F2FEF86E791E0215080409040E1F7D0
:101FE00000C000000E944D0F0E94E20F882321F0E4
:101FF0000E94DF0F0E942F1608950E94E70F089598
:10200000CF93DF93EB0186319C4711F50E94160AAE
:102010009D81992399F08A7A91E009F490E0909358
:102020002202811109C089E20E94F7140E94A50AC8
:1020300080E0DF91CF91089585E3F6CF8091220271
:10204000811104C089E20E94FF14F0CF85E3FBCF29
:1020500081E0EFCFCF93DF93EC01FB0185818823F3
:1020600009F4D2C09E0130572332310508F0B2C0C6
:102070000E94240B9093460280934502FE01E1509A
:10208000F047E232F10520F4E555F24E0C94E41CE1
:102090008091450281608093450293C08091460201
:1020A0008860809346028DC0809145028260F3CFA4
:1020B000809145028460EFCF809145028860EBCF2C
:1020C000809146028160EDCF809146028260E9CF27
:1020D000809145028061DFCF809145028062DBCF35
:1020E000809145028064D7CF0E949B058091450274
:1020F0008068D1CF809145028C60CDCF809146021F
:102100008360CFCF809145028E7FC5CF80914602FC
:10211000877FC7CF809145028D7FBDCF80914502DB
:102120008B7FB9CF80914502877FB5CF80914602E2
:102130008E7FB7CF809146028D7FB3CF80914502CD
:102140008F7EA9CF809145028F7DA5CF80914502DA
:102150008F7BA1CF0E949B05809145028F779BCFFB
:1021600080914502837F97CF809146028C7F99CFE3
:102170008091450282FB992790F921E0922790FBFC
:1021800082F990FB83F987CF80914602982F909532
:1021900091708E7F892B90FB81F983CF90914502BE
:1021A000892F8F7B96FF806476CF0E949B0590914C
:1021B0004502892F97FB87F980586DCF81E00E94F7
:1021C000AD0B80914502909146020E94290B0E941E
:1021D0009B0580E0DF91CF91089580E0F0CF909152
:1021E0004502892F8F7E94FF806155CF90914502E3
:1021F000892F8E7F90FF81604ECF90914602892F6C
:10220000877F93FF88604DCF81E0E4CF282F35EBA7
:102210002303C001112497FF04C080589109892F1E
:10222000089580589F4FFBCF8091290280FF0DC0F9
:102230006091070170E0660F771F6038710570F5D7
:102240006115710569F1862F089581FF07C06091BE
:10225000070184E0689FB0011124EFCF609107016E
:1022600082FD0AC0809128028823A9F020910601EE
:1022700060910701821710F088E0ECCF869FC001C3
:10228000112433E0880F991F3A95E1F7622F70E02F
:102290000E94D01CD2CF68E070E0D5CF8FE70895C0
:1022A00081E008958091290280FF0CC060910301B4
:1022B00070E075956795759567956115710549F19C
:1022C000862F089581FF06C06091030170E0759527
:1022D0006795F3CF6091030182FD0BC090912702B7
:1022E0009923A1F06091020180910301961738F0C3
:1022F000682F70E06038710500F38FE70895899FBB
:10230000C001112470E00E94D01CF4CF61E070E0A5
:10231000D7CF81E008958D3C31F40E94141181954E
:1023200080932D0208958E3C19F40E941411F8CF69
:102330008F3C31F40E941411819580932C020895F2
:10234000803D19F40E941411F8CF893D29F40E94B0
:10235000521180932E0208958A3D21F40E94521159
:102360008195F7CF8B3D31F40E9452118195809376
:102370002F0208958C3D19F40E945211F8CF9FE26C
:10238000980F983070F4815D990B21E030E001C026
:10239000220F8A95EAF780912B02822B80932B02E1
:1023A00008958D3D31F48091290281608093290246
:1023B00008958E3D21F4809129028260F7CF8F3DF0
:1023C000B9F7809129028460F1CF40912C028D3CB5
:1023D00059F480912D0287FF0DC010922D024111FA
:1023E0000BC01092280208C08E3C81F480912D020F
:1023F00018169CF3442381F080912E0290912F02B5
:10240000892B09F05AC01092270208958F3C49F495
:1024100047FFF0CF10922C0280912D028111ECCF5A
:10242000E0CF803D19F41416ACF3E4CF90912E0266
:10243000893D29F41916F4F610922E02DBCF8A3D5D
:1024400019F497FFD7CFF8CF90912F028B3D29F445
:1024500097FFD0CF10922F02CDCF8C3D19F41916D3
:10246000CCF3C8CF9FE2980F983090F4815D990B20
:1024700021E030E0B90102C0660F771F8A95E2F7CC
:10248000CB01809590912B02892380932B02B2CFB0
:102490008D3D31F4809129028E7F80932902AACF4D
:1024A0008E3D21F4809129028D7FF7CF8F3D09F079
:1024B000A1CF809129028B7FF0CF08950E94E4156F
:1024C0009C0190912C0280912D02982B21F0309349
:1024D00026022093250290912E0280912F02982BA4
:1024E00021F030932402209323028AE292E00E949A
:1024F0004F14089586E0EAE2F2E0DF011D928A952A
:10250000E9F71092280210922702109229020895EA
:10251000FC01828181110EC0838181110BC08481F5
:10252000811108C091E08581811101C090E0892F5F
:102530008170089581E0FCCFA6E0B0E0E2EAF2E12C
:102540000C94F91C86E0EAE2F2E0DE0111960190BB
:102550000D928A95E1F710922C0210922D021092A2
:102560002E0210922F028B819C81892B89F0809101
:102570002502909126020E94FC15AC019091280240
:102580009923C9F1809108018417150608F440C009
:102590008D819E81892B91F080912302909124025C
:1025A0000E94FC15AC0190912702992309F46AC09E
:1025B000809104018417150608F472C0BE016F5F94
:1025C0007F4F8AE292E00E941215811105C08AE2D3
:1025D00092E00E94881281110E945E1286E0FE0144
:1025E0003196AAE2B2E001900D928A95E1F7269623
:1025F000E3E00C94151D209109018AE0289F9001C9
:1026000011242417350720F69F5F9093280202C0FB
:102610009F3FD1F71B81112359F00E9414119FEFA6
:1026200011160CF491E0899F802D112480932C02C7
:102630001C81112359F00E9414119FEF11160CF404
:1026400091E0899F802D112480932D0280912C028E
:10265000882309F49DCF10912D02112309F498CFFE
:102660000E940611882351F080932C02812F0E9432
:102670000611882329F080932D028ACF81E0F4CFC0
:1026800081E0F9CF209105018AE0289F9001112473
:102690002417350708F092CF9F5F9093270202C05E
:1026A0009F3FD1F71D81112359F00E9452119FEFD6
:1026B00011160CF491E0899F802D112480932E0235
:1026C0001E81112359F00E9452119FEF11160CF434
:1026D00091E0899F802D112480932F0280912E02FA
:1026E000882309F46BCF10912F02112309F466CFD0
:1026F0000E940611882351F080932E02812F0E94A0
:102700000611882329F080932F0258CF81E0F4CF5F
:1027100081E0F9CF0F931F93CF93DF93C42FD22F74
:10272000FC0185818823C9F0409332020E94E415A0
:10273000909331028093300280E28C0F883040F415
:10274000C77081E001C0880FCA95EAF70E9448036C
:10275000DF91CF911F910F910895109132021413C0
:1027600032C080913002909131020E94FC15883C69
:10277000910548F5C0E2CD0F1D17B9F080E2810F39
:10278000883040F4177081E001C0880F1A95EAF78D
:102790000E944F03C83048F481E09D2F977001C01C
:1027A000880F9A95EAF70E944803802F0E943F0302
:1027B000C83070F6D77081E001C0880FDA95EAF76B
:1027C0000E944F03C5CF80E28C0F883008F6C77097
:1027D00081E001C0880FCA95EAF7F2CF0F93DB01C1
:1027E00088519C4787309105A0F5FC01E353F24ED8
:1027F0000C94E41C06E221EE41EE6AE17CE7CD0197
:102800000E948A1380E00F91089507E225EE45EEBD
:102810006BE17CE7F4CF06E221EE40EE68E17CE775
:10282000EECF07E225EE44EE69E17CE7E8CF06E271
:1028300021EE42EE6CE17CE7E2CF07E225EE46EEC8
:102840006DE17CE7DCCF08E221E045EE6EE17CE75C
:10285000D6CF15968C91882319F010923202D3CFDF
:1028600081E0D1CF90933802809337020895E091B0
:102870003702F0913802309729F00190F081E02D75
:102880000995089580E00895E0913702F0913802AB
:10289000309721F00280F381E02D09950895E091B1
:1028A0003702F0913802309739F022E0DC012C93A6
:1028B0000680F781E02D09950895A3E0B0E0E3E6F6
:1028C000F4E10C94FA1C209135023091360228175D
:1028D0003907A1F09093360280933502E0913702D8
:1028E000F0913802309751F023E029839B838A834B
:1028F0000084F185E02DCE01019609952396E2E052
:102900000C94161DA3E0B0E0E8E8F4E10C94FA1C86
:10291000209133023091340228173907A1F09093A7
:10292000340280933302E0913702F09138023097FD
:1029300051F024E029839B838A830084F185E02D74
:10294000CE01019609952396E2E00C94161D409164
:102950000001509101019A012E5F3F4F485F5F4F88
:1029600080E02417350709F40895F90191919F013A
:102970009923B9F38F5FF5CF882371F0209100017F
:1029800030910101F9013296285F3F4F91919817DC
:1029900029F0E217F307D1F780E0089581E0089568
:1029A0009C01FC0132969FEF80E04191461751F067
:1029B0009F3F19F4411101C0982F8F5F8630A9F70E
:1029C0009F3F09F40895290F311D97FD3A95F901AC
:1029D00062830895FC01329608962191261303C064
:1029E000DF0111971C92E817F907B9F70895682FCE
:1029F00080910001909101010E94D0140895682FE8
:102A000080910001909101010E94EA140895E091E3
:102A10000001F0910101329686E0DF011D928A9556
:102A2000E9F70895DC01FB0111969C9111978181D2
:102A3000981322C012968C911297882319F09281D4
:102A400089131AC013968C911397882319F09381D8
:102A5000891312C015968C911597882319F09581CA
:102A600089130AC014969C91992321F081E0248156
:102A7000291303C080E001C081E0817008950895AA
:102A80000E943F150895811106C081E080933902AC
:102A90000E944015089582E0F9CF83E080933902C7
:102AA0000E94401508950E944315089581E0809387
:102AB00039020E94401508950E9456150895089500
:102AC00008950E9460150895089508950E945F1565
:102AD0000895CF930E9464150E944D0F0E946515C2
:102AE000C0E08C2F0E94CA0E811105C0CF5FCA3092
:102AF000C1F7CF91089581E0FCCF85B7806885BF8D
:102B000085B7806885BF08951F921FB61F92112454
:102B10008F939F93AF93BF9380913A02811113C01B
:102B200080915B0290915C02A0915D02B0915E0287
:102B30004196A11DB11D80935B0290935C02A0930E
:102B40005D02B0935E02BF91AF919F918F911F90F4
:102B50001FBE1F90189580916302843031F10E944E
:102B6000260210923A0288E190E020E40FB6F89431
:102B7000A895809360000FBE2093600083B7817F8B
:102B8000846083BF83B7816083BF7894889583B75F
:102B90008E7F83BF0FB6F894A895809160008861FE
:102BA00080936000109260000FBE08950E949B0504
:102BB0000E942B02089582E084BD93E095BD9AEFB8
:102BC00097BD80936E0008952FB7F89480915B02B3
:102BD00090915C02A0915D02B0915E022FBF0895BA
:102BE0002FB7F89460915B0270915C0280915D0256
:102BF00090915E022FBF08959C014FB7F894809189
:102C00005B0290915C02A0915D02B0915E024FBFA9
:102C1000821B930B089578941F921FB61F92112464
:102C20008F939F93AF93BF9380915B0290915C02CF
:102C3000A0915D02B0915E020196A11DB11D80932D
:102C40005B0290935C02A0935D02B0935E02BF9121
:102C5000AF919F918F911F901FBE1F90189587E78E
:102C600097E7909301088093000888E19AE00FB6F7
:102C7000F894A895809360000FBE90936000FFCFFA
:102C800088E19AE00FB6F894A895809360000FBE93
:102C900090936000FFCF80914302089508959B01B7
:102CA000BA01909163029430E9F48F708093E90047
:102CB0009FEF8091E800915085FD06C085ED8A95D3
:102CC000F1F700009111F5CF8091E80085FF0AC06F
:102CD00050E040E0C9010E9449188091E8008E77D9
:102CE0008093E800089543E050E0BC0182E00E9438
:102CF0004F16089546E050E0BC0182E00E944F1656
:102D00000895CF93DF93EC0148E050E0BC0181E0EF
:102D10000E944F1688E0FE01ABE3B2E001900D92F5
:102D20008A95E1F7DF91CF91089580916202811138
:102D300009C00E94D9190E94361A8091E20084606D
:102D40008093E20008951092620208950E94561541
:102D5000089560915F0281E0611101C080E00E94EE
:102D60004D1508959091630281E0943009F080E060
:102D700060915F020E945315089542E061EC81E08A
:102D80000E94551942E261EC82E00E94551990912F
:102D9000630281E0943009F080E060915F020E945C
:102DA0004315089580916502833009F461C030F4C1
:102DB0008130D1F1823009F49EC008958A3009F43F
:102DC0008AC08B3009F46FC0893009F050C08091FF
:102DD0006402813209F04BC08091680290916902CF
:102DE000029708F044C08091E800877F8093E80054
:102DF0008091E80082FF37C09091F3008091F2004B
:102E0000029731F48091F100813011F0863021F485
:102E10008091F100809343028091E8008B7780934A
:102E2000E8000E94891923C080916402813AF9F474
:102E30008091E800877F8093E800809168029091FC
:102E40006902892B61F468E08BE392E070E00E94F4
:102E500098188091E8008B778093E800089560E0EF
:102E600090E080E0F3CF809163028111C1CF08959B
:102E700080916402813AD9F7809168029091690249
:102E8000892BA9F78091E800877F8093E8008091E3
:102E9000E80080FFFCCF809114018093F1008091C5
:102EA000E8008E77BCCF80916402813201F7809177
:102EB000680290916902892BD1F68091E800877FA2
:102EC0008093E8000E948919809166028093140122
:102ED0000E949B05089580916402813241F68091A1
:102EE000E800877F8093E8000E948919809167023B
:102EF00080934402089580916402813A09F0B7CF2B
:102F00008091E800877F8093E8008091E80080FF4F
:102F1000FCCF80914402C1CF84B7877F84BF0FB6B6
:102F2000F894A89580916000886180936000109269
:102F300060000FBE80E890E00FB6F89480936100C7
:102F4000909361000FBE0E945C1508950E94D919EC
:102F50000E94361AE2EEF0E08081846080837894EB
:102F60000E94B51C08958AE091E00E9432140895F1
:102F700080916302853031F480916302853019F0CD
:102F80000E94D61508950E94AB150E9469158823EA
:102F900099F380916102882379F30E9433180E948B
:102FA0009B05EACF08959A0140916A0250916B0205
:102FB0000E94DB170895492F55274330510519F119
:102FC00068F44130510509F444C04230510509F418
:102FD00045C090E080E050E040E025C0413251051E
:102FE00049F142325105A9F784E490E042EE51E004
:102FF00061157105C1F08BE790E047E651E0613063
:10300000710589F0E6CF99278130910581F000970D
:1030100029F00297F1F6E4EDF0E002C0E6E1F1E01C
:10302000849190E0AF01F901518340830895EEEF60
:10303000F0E0F6CF89E090E04CE251E061157105D7
:1030400091F389E090E045E451E06130710559F376
:10305000C0CF82E190E045E551E0E5CF8BE390E021
:103060004AE151E0E0CF80E189BD82E189BD09B448
:1030700000FEFDCF8091D8008F7D8093D800809195
:10308000E00082608093E0008091E00081FDFCCF51
:103090000895AF92BF92CF92DF92FF920F931F934A
:1030A000CF93DF936C01EB018A010E94A819F82EDF
:1030B000811123C00115110539F0F801808191813A
:1030C000C81BD90BC80ED91EB12CA12C2097A9F072
:1030D0008091E80085FD22C08091E8008E77809382
:1030E000E80001151105A1F0F80180819181A80E79
:1030F000B91EB182A08285E0F82E8F2DDF91CF918D
:103100001F910F91FF90DF90CF90BF90AF900895E7
:103110000E94A8198823D1F2F82EEFCFF6018191F1
:103120006F018093F1002197FFEFAF1ABF0ACECF56
:10313000FC0180916A0290916B0286179707A0F0BC
:103140006115710529F49091E8009E779093E8004D
:1031500090E06115710551F4911108C08091E8006B
:1031600082FF34C080E00895BC01F2CF80916302F9
:103170008823C1F18530C1F18091E80083FD30C022
:103180008091E80082FDEACF8091E80080FFE1CFE6
:103190008091F3002091F200382F6115710519F02C
:1031A0002830310558F091E02830310509F090E0E1
:1031B0002091E8002E772093E800CBCF8191809377
:1031C000F100615071092F5F3F4FE7CF809163029B
:1031D000882341F0853041F08091E80083FFBECF25
:1031E00081E0089582E0089583E00895FC018091D4
:1031F0006A0290916B0286179707A0F0611571051E
:1032000029F48091E8008E778093E80090E06115C2
:10321000710551F4911108C08091E80082FF35C01A
:1032200080E00895BC01F2CF809163028823C9F148
:103230008530C9F18091E80083FD31C08091E800BC
:1032400082FDEACF8091E80080FFE1CF8091F3001A
:103250002091F200382F6115710519F028303105E1
:1032600058F091E02830310509F090E08091E800B5
:103270008E778093E800CBCF84918093F1003196D4
:10328000615071092F5F3F4FE6CF80916302882321
:1032900041F0853041F08091E80083FFBDCF81E0AF
:1032A000089582E0089583E00895982F973028F0DC
:1032B0008F708093E90081E008959093E900242FB6
:1032C000762F50E0981731F07091EC002091ED00CE
:1032D0005091F00021FD02C09F5FE8CF3091EB00DC
:1032E0003E7F3093EB003091ED003D7F3093ED0059
:1032F0003091EB0031603093EB007093EC00209341
:10330000ED005093F0002091EE0027FDE5CF80E026
:1033100008958091640287FF13C08091E80082FFC6
:1033200006C08091E8008B778093E80004C080910C
:1033300063028111F2CF0895809163028823D9F34B
:103340008091E80080FFF8CF8091E8008E77ECCF85
:103350002091E4003091E50095E6A9012091EC0070
:10336000822F817020FF06C08091E80080FF06C098
:1033700080E008952091E80022FD1AC08091630248
:10338000882389F0853089F08091EB0085FD0FC09E
:103390002091E4003091E50042175307F9F2915073
:1033A000E1F684E0089582E0089583E0089581E0E5
:1033B00008950E94481A0E94501AE0EEF0E08081C1
:1033C00081608083E8EDF0E080818F77808319BC95
:1033D000A7EDB0E08C918E7F8C9380818F7E80836F
:1033E0001092620208950F931F93CF93DF930E9470
:1033F000481A0E94501AC8EDD0E088818F778883E0
:1034000088818068888388818F7D888319BC109229
:10341000630210925F02109261021092600200EE4D
:1034200010E0F80180818B7F8083888181608883B0
:1034300042E060E080E00E945519E1EEF0E080811A
:103440008E7F8083E2EEF0E08081816080838081E6
:1034500088608083F80180818E7F8083888180618D
:103460008883DF91CF911F910F910895E8EDF0E0EF
:1034700080818F7E8083E7EDF0E0808181608083B2
:1034800084E082BF81E0809362020E94F319089574
:10349000E8EDF0E080818E7F80831092E200089555
:1034A0001092DA001092E10008951F920F920FB669
:1034B0000F9211242F933F934F935F936F937F93BA
:1034C0008F939F93AF93BF93EF93FF938091E1000E
:1034D00082FF0BC08091E20082FF07C08091E10073
:1034E0008B7F8093E1000E94B41C8091DA0080FF02
:1034F00019C08091D80080FF15C08091DA008E7FBE
:103500008093DA008091D90080FF96C080E189BD68
:1035100082E189BD09B400FEFDCF81E080936302A2
:103520000E9495168091E10080FF19C08091E20011
:1035300080FF15C08091E2008E7F8093E200809131
:10354000E20080618093E2008091D80080628093E5
:10355000D80019BC85E0809363020E94A91680916F
:10356000E10084FF2BC08091E20084FF27C080E14E
:1035700089BD82E189BD89B5982F917080FFFBCF0D
:103580008091D8008F7D8093D8008091E1008F7E5C
:103590008093E1008091E2008F7E8093E200809131
:1035A000E20081608093E20080915F02882309F449
:1035B00049C084E0809363020E94B2168091E100CA
:1035C00083FF29C08091E20083FF25C08091E10044
:1035D000877F8093E10082E08093630210925F0214
:1035E0008091E1008E7F8093E1008091E2008E7FE8
:1035F0008093E2008091E20080618093E20042E0EB
:1036000060E080E00E9455198091F000886080930E
:10361000F0000E94A616FF91EF91BF91AF919F918C
:103620008F917F916F915F914F913F912F910F906B
:103630000FBE0F901F90189519BC109263020E9444
:10364000A31670CF8091E30087FD93E0909363020F
:10365000B3CF1F920F920FB60F9211242F933F9367
:103660004F935F936F937F938F939F93AF93BF938A
:10367000CF93DF93EF93FF93D091E900DF708091B8
:10368000EC00C82FC17080FDC0E81092E900809165
:10369000F000877F8093F00078940E946D1B109259
:1036A000E9008091F00088608093F000CD2BCF700E
:1036B000C093E900FF91EF91DF91CF91BF91AF915E
:1036C0009F918F917F916F915F914F913F912F913A
:1036D0000F900FBE0F901F901895AAE2B0E0E3E79D
:1036E000FBE10C94F91C84E692E02091F100FC01CE
:1036F0002193CF01F2E08C369F07B9F70E94D216D2
:103700008091E80083FF1EC1809164029091650260
:103710009A3008F017C1E92FF0E0EC52F24E0C9409
:10372000E41C803899F0823809F00CC1809168025D
:103730008F70873008F006C18093E9008091EB001C
:1037400085FB882780F91092E90006C0809160020D
:1037500090916102911182609091E800977F90931F
:10376000E8008093F1001092F1008091E8008E77DC
:10377000E5C0882309F4D3C0823009F0E3C080910A
:1037800066028111D6C0809168028F702FEF280FDA
:10379000263008F0D7C08093E9002091EB0020FF8D
:1037A000C8C0933031F48091EB0080628093EB00CD
:1037B000C0C09091EB0090619093EB0021E030E06D
:1037C00001C0220F8A95EAF72093EA001092EA00DE
:1037D0008091EB008860EACF8111B4C0109166023D
:1037E0001F778091E3008078812B8093E3008091A4
:1037F000E800877F8093E8000E9489198091E800A3
:1038000080FFFCCF8091E30080688093E30082E03A
:10381000111183E08093630295C08058823008F0D4
:1038200091C080916602909167028C3D23E09207DF
:10383000A1F583E08A838AE289834FB7F894DE0199
:10384000139620E03EE051E2E32FF0E05093570062
:10385000E49120FF03C0E295EF703F5FEF708E2F81
:1038600090E0EA30C0F0C7968D939D932F5F24318E
:1038700059F74FBF8091E800877F8093E8006AE2A4
:1038800070E0CE0101960E9498188091E8008B7735
:103890008093E80057C0C096E7CF609168027091AE
:1038A0006902AE014F5F5F4F0E94D317BC01892BA5
:1038B00009F448C09091E800977F9093E8008981CF
:1038C0009A810E94F618E1CF8038E1F58091E800F6
:1038D000877F8093E80080915F028093F10045CF5D
:1038E000811130C090916602923060F58091E800BD
:1038F000877F8093E80090935F020E9489198091EE
:103900005F02882311F084E005C08091E30087FD09
:10391000FACF81E0809363020E94BD1613C08091AC
:103920006602813079F481E0933009F080E0809381
:1039300061021092E9008091E800877F8093E8009F
:103940000E9489198091E80083FF0AC08091E800F5
:10395000877F8093E8008091EB0080628093EB008A
:10396000AA96E3E00C94151D0895CF93809163020D
:103970008823A1F0C091E900CF709091EC00892FCD
:10398000817090FD80E8C82B1092E9008091E800DA
:1039900083FD0E946D1BCF70C093E900CF91089505
:1039A00097FB072E16F4009407D077FD09D00E94EC
:1039B000211D07FC05D03EF4909581959F4F0895F9
:1039C000709561957F4F0895EE0FFF1F0590F4915C
:1039D000E02D09942F923F924F925F926F927F92C7
:1039E0008F929F92AF92BF92CF92DF92EF92FF920F
:1039F0000F931F93CF93DF93CDB7DEB7CA1BDB0BBB
:103A00000FB6F894DEBF0FBECDBF09942A8839885F
:103A100048885F846E847D848C849B84AA84B98466
:103A2000C884DF80EE80FD800C811B81AA81B98172
:103A3000CE0FD11D0FB6F894DEBF0FBECDBFED0186
:103A40000895AA1BBB1B51E107C0AA1FBB1FA617E5
:103A5000B70710F0A61BB70B881F991F5A95A9F737
:103A600080959095BC01CD010895FB01DC0104C057
:103A70008D910190801921F441505040C8F7881B66
:103A8000990B0895FB01DC0102C001900D92415099
:103A90005040D8F70895F999FECF92BD81BDF89AAC
:103AA000992780B50895A8E1B0E042E050E00C9479
:103AB0008F1DDC01A40FB51F4150504048F0CB01D1
:103AC000840F951F2E910E946A1D41505040D0F7DF
:103AD0000895262FF999FECF92BD81BDF89A0197DE
:103AE00000B4021639F01FBA20BD0FB6F894FA9A46
:103AF000F99A0FBE08950396272F0E946A1D0E940F
:103B0000691D252F0E946A1D242F0C946A1D0196A1
:103B1000272F0E946A1D0C94691DDC01CB01FC015A
:103B2000F999FECF06C0F2BDE1BDF89A319600B416
:103B30000D9241505040B8F70895F894FFCF970385
:103B40009703E703E7034C046804C603C6036D0448
:103B5000DE04ED04ED048210F6108A1054105810A3
:103B60008E105C1092109E106810EF106C10A21056
:103B70007010A610CE107410AA10D5107A10B010C4
:103B8000B8106010961064109A107E10B410C41013
:103B9000DE10ED104E108610FD100B141114FA13E8
:103BA000051417141D142314911BB91BA21CB91B57
:0C3BB000A21CEC1B0D1CA21C641C701C51
:103BBC000002280850011E0A14014B1681164E16DD
:103BCC007A16731601E200E900EA00B500B600B7F8
:103BDC0000CD008301CC008A0192019401210223C3
:103BEC000224022502260227022A02B300B4006F27
:103BFC000070009F01CB019F02A002818283E20032
:103C0C00E900EA00B500B600B700CD008301CC0096
:103C1C008A01920194012102230224022502260228
:103C2C0027022A02B300B4006F0070009F01CB0181
:103C3C009F02A00281828393FF92FF91F490F594EE
:0C3C4C00F666F79731C633343235360087
:00000001FF
